{
  "_format": "hh-sol-artifact-1",
  "contractName": "TokenFarm",
  "sourceName": "contracts/TokenFarm.sol",
  "abi": [
    {
      "inputs": [
        {
          "internalType": "address",
          "name": "_dappTokenAddress",
          "type": "address"
        }
      ],
      "stateMutability": "nonpayable",
      "type": "constructor"
    },
    {
      "inputs": [
        {
          "internalType": "address",
          "name": "token",
          "type": "address"
        }
      ],
      "name": "addAllowedTokens",
      "outputs": [],
      "stateMutability": "nonpayable",
      "type": "function"
    },
    {
      "inputs": [],
      "name": "dappToken",
      "outputs": [
        {
          "internalType": "contract IERC20",
          "name": "",
          "type": "address"
        }
      ],
      "stateMutability": "view",
      "type": "function"
    },
    {
      "inputs": [
        {
          "internalType": "address",
          "name": "token",
          "type": "address"
        }
      ],
      "name": "getTokenETHPrice",
      "outputs": [
        {
          "internalType": "uint256",
          "name": "",
          "type": "uint256"
        }
      ],
      "stateMutability": "view",
      "type": "function"
    },
    {
      "inputs": [
        {
          "internalType": "address",
          "name": "user",
          "type": "address"
        },
        {
          "internalType": "address",
          "name": "token",
          "type": "address"
        }
      ],
      "name": "getUserStakingBalanceEthValue",
      "outputs": [
        {
          "internalType": "uint256",
          "name": "",
          "type": "uint256"
        }
      ],
      "stateMutability": "view",
      "type": "function"
    },
    {
      "inputs": [
        {
          "internalType": "address",
          "name": "user",
          "type": "address"
        }
      ],
      "name": "getUserTotalValue",
      "outputs": [
        {
          "internalType": "uint256",
          "name": "",
          "type": "uint256"
        }
      ],
      "stateMutability": "view",
      "type": "function"
    },
    {
      "inputs": [],
      "name": "issueTokens",
      "outputs": [],
      "stateMutability": "nonpayable",
      "type": "function"
    },
    {
      "inputs": [],
      "name": "name",
      "outputs": [
        {
          "internalType": "string",
          "name": "",
          "type": "string"
        }
      ],
      "stateMutability": "view",
      "type": "function"
    },
    {
      "inputs": [
        {
          "internalType": "address",
          "name": "token",
          "type": "address"
        },
        {
          "internalType": "address",
          "name": "priceFeed",
          "type": "address"
        }
      ],
      "name": "setPriceFeedContract",
      "outputs": [],
      "stateMutability": "nonpayable",
      "type": "function"
    },
    {
      "inputs": [
        {
          "internalType": "uint256",
          "name": "_amount",
          "type": "uint256"
        },
        {
          "internalType": "address",
          "name": "token",
          "type": "address"
        }
      ],
      "name": "stakeTokens",
      "outputs": [],
      "stateMutability": "payable",
      "type": "function"
    },
    {
      "inputs": [
        {
          "internalType": "uint256",
          "name": "",
          "type": "uint256"
        }
      ],
      "name": "stakers",
      "outputs": [
        {
          "internalType": "address",
          "name": "",
          "type": "address"
        }
      ],
      "stateMutability": "view",
      "type": "function"
    },
    {
      "inputs": [
        {
          "internalType": "address",
          "name": "",
          "type": "address"
        },
        {
          "internalType": "address",
          "name": "",
          "type": "address"
        }
      ],
      "name": "stakingBalance",
      "outputs": [
        {
          "internalType": "uint256",
          "name": "",
          "type": "uint256"
        }
      ],
      "stateMutability": "view",
      "type": "function"
    },
    {
      "inputs": [
        {
          "internalType": "address",
          "name": "token",
          "type": "address"
        }
      ],
      "name": "tokenIsAllowed",
      "outputs": [
        {
          "internalType": "bool",
          "name": "",
          "type": "bool"
        }
      ],
      "stateMutability": "nonpayable",
      "type": "function"
    },
    {
      "inputs": [
        {
          "internalType": "address",
          "name": "",
          "type": "address"
        }
      ],
      "name": "tokenPriceFeedMapping",
      "outputs": [
        {
          "internalType": "address",
          "name": "",
          "type": "address"
        }
      ],
      "stateMutability": "view",
      "type": "function"
    },
    {
      "inputs": [
        {
          "internalType": "address",
          "name": "",
          "type": "address"
        }
      ],
      "name": "uniqueTokensStaked",
      "outputs": [
        {
          "internalType": "uint256",
          "name": "",
          "type": "uint256"
        }
      ],
      "stateMutability": "view",
      "type": "function"
    },
    {
      "inputs": [
        {
          "internalType": "address",
          "name": "token",
          "type": "address"
        }
      ],
      "name": "unstakeTokens",
      "outputs": [],
      "stateMutability": "nonpayable",
      "type": "function"
    }
  ],
  "bytecode": "0x60806040526040518060400160405280600f81526020017f4461707020546f6b656e204661726d000000000000000000000000000000000081525060019080519060200190620000519291906200010d565b503480156200005f57600080fd5b5060405162001d6738038062001d678339818101604052810190620000859190620001d4565b80600260006101000a81548173ffffffffffffffffffffffffffffffffffffffff021916908373ffffffffffffffffffffffffffffffffffffffff160217905550336000806101000a81548173ffffffffffffffffffffffffffffffffffffffff021916908373ffffffffffffffffffffffffffffffffffffffff16021790555050620002b3565b8280546200011b9062000234565b90600052602060002090601f0160209004810192826200013f57600085556200018b565b82601f106200015a57805160ff19168380011785556200018b565b828001600101855582156200018b579182015b828111156200018a5782518255916020019190600101906200016d565b5b5090506200019a91906200019e565b5090565b5b80821115620001b95760008160009055506001016200019f565b5090565b600081519050620001ce8162000299565b92915050565b600060208284031215620001e757600080fd5b6000620001f784828501620001bd565b91505092915050565b60006200020d8262000214565b9050919050565b600073ffffffffffffffffffffffffffffffffffffffff82169050919050565b600060028204905060018216806200024d57607f821691505b602082108114156200026457620002636200026a565b5b50919050565b7f4e487b7100000000000000000000000000000000000000000000000000000000600052602260045260246000fd5b620002a48162000200565b8114620002b057600080fd5b50565b611aa480620002c36000396000f3fe6080604052600436106100e85760003560e01c806360ab58521161008a578063cc81e06011610059578063cc81e060146102e5578063dd5b846714610322578063e88c19971461035f578063fd5e6dd11461039c576100e8565b806360ab58521461022b578063877dd39d14610242578063af3f5e221461026b578063b83e0234146102a8576100e8565b806327927b3e116100c657806327927b3e1461015d57806329161a001461019a5780632d1ad8b8146101d75780635eb186f814610200576100e8565b806306fdde03146100ed5780630bea440d14610118578063171e44ea14610134575b600080fd5b3480156100f957600080fd5b506101026103d9565b60405161010f9190611655565b60405180910390f35b610132600480360381019061012d91906113bc565b610467565b005b34801561014057600080fd5b5061015b60048036038101906101569190611305565b61070b565b005b34801561016957600080fd5b50610184600480360381019061017f9190611305565b6107ff565b60405161019191906115a4565b60405180910390f35b3480156101a657600080fd5b506101c160048036038101906101bc919061132e565b610832565b6040516101ce91906116d7565b60405180910390f35b3480156101e357600080fd5b506101fe60048036038101906101f99190611305565b610857565b005b34801561020c57600080fd5b50610215610a86565b604051610222919061163a565b60405180910390f35b34801561023757600080fd5b50610240610aac565b005b34801561024e57600080fd5b506102696004803603810190610264919061132e565b610c7f565b005b34801561027757600080fd5b50610292600480360381019061028d9190611305565b610d8f565b60405161029f91906116d7565b60405180910390f35b3480156102b457600080fd5b506102cf60048036038101906102ca9190611305565b610e84565b6040516102dc91906116d7565b60405180910390f35b3480156102f157600080fd5b5061030c6004803603810190610307919061132e565b610e9c565b60405161031991906116d7565b60405180910390f35b34801561032e57600080fd5b5061034960048036038101906103449190611305565b610f99565b604051610356919061161f565b60405180910390f35b34801561036b57600080fd5b5061038660048036038101906103819190611305565b61105f565b60405161039391906116d7565b60405180910390f35b3480156103a857600080fd5b506103c360048036038101906103be9190611393565b611168565b6040516103d091906115a4565b60405180910390f35b600180546103e6906118e2565b80601f0160208091040260200160405190810160405280929190818152602001828054610412906118e2565b801561045f5780601f106104345761010080835404028352916020019161045f565b820191906000526020600020905b81548152906001019060200180831161044257829003601f168201915b505050505081565b600082116104aa576040517f08c379a00000000000000000000000000000000000000000000000000000000081526004016104a190611677565b60405180910390fd5b6104b381610f99565b15610707576104c233826111a7565b8073ffffffffffffffffffffffffffffffffffffffff166323b872dd3330856040518463ffffffff1660e01b81526004016104ff939291906115bf565b602060405180830381600087803b15801561051957600080fd5b505af115801561052d573d6000803e3d6000fd5b505050506040513d601f19601f82011682018060405250810190610551919061136a565b5081600360008373ffffffffffffffffffffffffffffffffffffffff1673ffffffffffffffffffffffffffffffffffffffff16815260200190815260200160002060003373ffffffffffffffffffffffffffffffffffffffff1673ffffffffffffffffffffffffffffffffffffffff168152602001908152602001600020546105da919061170e565b600360008373ffffffffffffffffffffffffffffffffffffffff1673ffffffffffffffffffffffffffffffffffffffff16815260200190815260200160002060003373ffffffffffffffffffffffffffffffffffffffff1673ffffffffffffffffffffffffffffffffffffffff168152602001908152602001600020819055506001600460003373ffffffffffffffffffffffffffffffffffffffff1673ffffffffffffffffffffffffffffffffffffffff168152602001908152602001600020541415610706576007339080600181540180825580915050600190039060005260206000200160009091909190916101000a81548173ffffffffffffffffffffffffffffffffffffffff021916908373ffffffffffffffffffffffffffffffffffffffff1602179055505b5b5050565b60008054906101000a900473ffffffffffffffffffffffffffffffffffffffff1673ffffffffffffffffffffffffffffffffffffffff163373ffffffffffffffffffffffffffffffffffffffff1614610799576040517f08c379a0000000000000000000000000000000000000000000000000000000008152600401610790906116b7565b60405180910390fd5b6006819080600181540180825580915050600190039060005260206000200160009091909190916101000a81548173ffffffffffffffffffffffffffffffffffffffff021916908373ffffffffffffffffffffffffffffffffffffffff16021790555050565b60056020528060005260406000206000915054906101000a900473ffffffffffffffffffffffffffffffffffffffff1681565b6003602052816000526040600020602052806000526040600020600091509150505481565b6000600360008373ffffffffffffffffffffffffffffffffffffffff1673ffffffffffffffffffffffffffffffffffffffff16815260200190815260200160002060003373ffffffffffffffffffffffffffffffffffffffff1673ffffffffffffffffffffffffffffffffffffffff1681526020019081526020016000205490506000811161091b576040517f08c379a000000000000000000000000000000000000000000000000000000000815260040161091290611697565b60405180910390fd5b8173ffffffffffffffffffffffffffffffffffffffff1663a9059cbb33836040518363ffffffff1660e01b81526004016109569291906115f6565b602060405180830381600087803b15801561097057600080fd5b505af1158015610984573d6000803e3d6000fd5b505050506040513d601f19601f820116820180604052508101906109a8919061136a565b506000600360008473ffffffffffffffffffffffffffffffffffffffff1673ffffffffffffffffffffffffffffffffffffffff16815260200190815260200160002060003373ffffffffffffffffffffffffffffffffffffffff1673ffffffffffffffffffffffffffffffffffffffff168152602001908152602001600020819055506001600460003373ffffffffffffffffffffffffffffffffffffffff1673ffffffffffffffffffffffffffffffffffffffff1681526020019081526020016000206000828254610a7b91906117ef565b925050819055505050565b600260009054906101000a900473ffffffffffffffffffffffffffffffffffffffff1681565b60008054906101000a900473ffffffffffffffffffffffffffffffffffffffff1673ffffffffffffffffffffffffffffffffffffffff163373ffffffffffffffffffffffffffffffffffffffff1614610b3a576040517f08c379a0000000000000000000000000000000000000000000000000000000008152600401610b31906116b7565b60405180910390fd5b60005b6007805490508111610c7c57600060078281548110610b85577f4e487b7100000000000000000000000000000000000000000000000000000000600052603260045260246000fd5b9060005260206000200160009054906101000a900473ffffffffffffffffffffffffffffffffffffffff169050600260009054906101000a900473ffffffffffffffffffffffffffffffffffffffff1673ffffffffffffffffffffffffffffffffffffffff1663a9059cbb82610bfa84610d8f565b6040518363ffffffff1660e01b8152600401610c179291906115f6565b602060405180830381600087803b158015610c3157600080fd5b505af1158015610c45573d6000803e3d6000fd5b505050506040513d601f19601f82011682018060405250810190610c69919061136a565b505080610c7590611914565b9050610b3d565b50565b60008054906101000a900473ffffffffffffffffffffffffffffffffffffffff1673ffffffffffffffffffffffffffffffffffffffff163373ffffffffffffffffffffffffffffffffffffffff1614610d0d576040517f08c379a0000000000000000000000000000000000000000000000000000000008152600401610d04906116b7565b60405180910390fd5b80600560008473ffffffffffffffffffffffffffffffffffffffff1673ffffffffffffffffffffffffffffffffffffffff16815260200190815260200160002060006101000a81548173ffffffffffffffffffffffffffffffffffffffff021916908373ffffffffffffffffffffffffffffffffffffffff1602179055505050565b600080600090506000600460008573ffffffffffffffffffffffffffffffffffffffff1673ffffffffffffffffffffffffffffffffffffffff168152602001908152602001600020541115610e7e5760005b600680549050811015610e7c57610e5c8460068381548110610e2c577f4e487b7100000000000000000000000000000000000000000000000000000000600052603260045260246000fd5b9060005260206000200160009054906101000a900473ffffffffffffffffffffffffffffffffffffffff16610e9c565b82610e67919061170e565b91508080610e7490611914565b915050610de1565b505b50919050565b60046020528060005260406000206000915090505481565b600080600460008573ffffffffffffffffffffffffffffffffffffffff1673ffffffffffffffffffffffffffffffffffffffff1681526020019081526020016000205411610eed5760009050610f93565b670de0b6b3a7640000610eff8361105f565b600360008573ffffffffffffffffffffffffffffffffffffffff1673ffffffffffffffffffffffffffffffffffffffff16815260200190815260200160002060008673ffffffffffffffffffffffffffffffffffffffff1673ffffffffffffffffffffffffffffffffffffffff16815260200190815260200160002054610f869190611795565b610f909190611764565b90505b92915050565b600080600090506006805490508111611058578273ffffffffffffffffffffffffffffffffffffffff1660068281548110610ffd577f4e487b7100000000000000000000000000000000000000000000000000000000600052603260045260246000fd5b9060005260206000200160009054906101000a900473ffffffffffffffffffffffffffffffffffffffff1673ffffffffffffffffffffffffffffffffffffffff16141561104e57600191505061105a565b600091505061105a565b505b919050565b600080600560008473ffffffffffffffffffffffffffffffffffffffff1673ffffffffffffffffffffffffffffffffffffffff16815260200190815260200160002060009054906101000a900473ffffffffffffffffffffffffffffffffffffffff169050600081905060008060008060008573ffffffffffffffffffffffffffffffffffffffff1663feaf968c6040518163ffffffff1660e01b815260040160a06040518083038186803b15801561111757600080fd5b505afa15801561112b573d6000803e3d6000fd5b505050506040513d601f19601f8201168201806040525081019061114f91906113f8565b9450945094509450945083975050505050505050919050565b6007818154811061117857600080fd5b906000526020600020016000915054906101000a900473ffffffffffffffffffffffffffffffffffffffff1681565b6000600360008373ffffffffffffffffffffffffffffffffffffffff1673ffffffffffffffffffffffffffffffffffffffff16815260200190815260200160002060008473ffffffffffffffffffffffffffffffffffffffff1673ffffffffffffffffffffffffffffffffffffffff1681526020019081526020016000205411611283576001600460008473ffffffffffffffffffffffffffffffffffffffff1673ffffffffffffffffffffffffffffffffffffffff168152602001908152602001600020600082825461127b919061170e565b925050819055505b5050565b600081359050611296816119fb565b92915050565b6000815190506112ab81611a12565b92915050565b6000815190506112c081611a29565b92915050565b6000813590506112d581611a40565b92915050565b6000815190506112ea81611a40565b92915050565b6000815190506112ff81611a57565b92915050565b60006020828403121561131757600080fd5b600061132584828501611287565b91505092915050565b6000806040838503121561134157600080fd5b600061134f85828601611287565b925050602061136085828601611287565b9150509250929050565b60006020828403121561137c57600080fd5b600061138a8482850161129c565b91505092915050565b6000602082840312156113a557600080fd5b60006113b3848285016112c6565b91505092915050565b600080604083850312156113cf57600080fd5b60006113dd858286016112c6565b92505060206113ee85828601611287565b9150509250929050565b600080600080600060a0868803121561141057600080fd5b600061141e888289016112f0565b955050602061142f888289016112b1565b9450506040611440888289016112db565b9350506060611451888289016112db565b9250506080611462888289016112f0565b9150509295509295909350565b61147881611823565b82525050565b61148781611835565b82525050565b6114968161188b565b82525050565b60006114a7826116f2565b6114b181856116fd565b93506114c18185602086016118af565b6114ca816119ea565b840191505092915050565b60006114e2601d836116fd565b91507f416d6f756e742063616e6e6f74206265206c6f776572207468616e20300000006000830152602082019050919050565b6000611522601c836116fd565b91507f5374616b696e672062616c616e63652063616e206e6f742062652030000000006000830152602082019050919050565b60006115626014836116fd565b91507f596f7520617265206e6f7420616e206f776e65720000000000000000000000006000830152602082019050919050565b61159e8161186b565b82525050565b60006020820190506115b9600083018461146f565b92915050565b60006060820190506115d4600083018661146f565b6115e1602083018561146f565b6115ee6040830184611595565b949350505050565b600060408201905061160b600083018561146f565b6116186020830184611595565b9392505050565b6000602082019050611634600083018461147e565b92915050565b600060208201905061164f600083018461148d565b92915050565b6000602082019050818103600083015261166f818461149c565b905092915050565b60006020820190508181036000830152611690816114d5565b9050919050565b600060208201905081810360008301526116b081611515565b9050919050565b600060208201905081810360008301526116d081611555565b9050919050565b60006020820190506116ec6000830184611595565b92915050565b600081519050919050565b600082825260208201905092915050565b60006117198261186b565b91506117248361186b565b9250827fffffffffffffffffffffffffffffffffffffffffffffffffffffffffffffffff038211156117595761175861195d565b5b828201905092915050565b600061176f8261186b565b915061177a8361186b565b92508261178a5761178961198c565b5b828204905092915050565b60006117a08261186b565b91506117ab8361186b565b9250817fffffffffffffffffffffffffffffffffffffffffffffffffffffffffffffffff04831182151516156117e4576117e361195d565b5b828202905092915050565b60006117fa8261186b565b91506118058361186b565b9250828210156118185761181761195d565b5b828203905092915050565b600061182e8261184b565b9050919050565b60008115159050919050565b6000819050919050565b600073ffffffffffffffffffffffffffffffffffffffff82169050919050565b6000819050919050565b600069ffffffffffffffffffff82169050919050565b60006118968261189d565b9050919050565b60006118a88261184b565b9050919050565b60005b838110156118cd5780820151818401526020810190506118b2565b838111156118dc576000848401525b50505050565b600060028204905060018216806118fa57607f821691505b6020821081141561190e5761190d6119bb565b5b50919050565b600061191f8261186b565b91507fffffffffffffffffffffffffffffffffffffffffffffffffffffffffffffffff8214156119525761195161195d565b5b600182019050919050565b7f4e487b7100000000000000000000000000000000000000000000000000000000600052601160045260246000fd5b7f4e487b7100000000000000000000000000000000000000000000000000000000600052601260045260246000fd5b7f4e487b7100000000000000000000000000000000000000000000000000000000600052602260045260246000fd5b6000601f19601f8301169050919050565b611a0481611823565b8114611a0f57600080fd5b50565b611a1b81611835565b8114611a2657600080fd5b50565b611a3281611841565b8114611a3d57600080fd5b50565b611a498161186b565b8114611a5457600080fd5b50565b611a6081611875565b8114611a6b57600080fd5b5056fea26469706673582212207ef2ee3e6759d57a565a9ab730d6f68fb67377c55287f43de83cfecbd8a50c1864736f6c63430008000033",
  "linkReferences": {},
  "deployedLinkReferences": {}
}